:020000040800F2
:10000000981A002045010008D5230008AB18000805
:10001000D1230008FD0F00084D3600080000000045
:10002000000000000000000000000000172E000883
:1000300099110008000000001D2B0008292F00085E
:100040005F0100085F0100085F0100085F01000810
:100050005F0100085F0100085F0100085F01000800
:100060005F0100085F0100085F0100085F010008F0
:100070005F0100085F0100085F0100085F010008E0
:100080005F0100085F0100085F0100085F010008D0
:100090005F0100085F0100085F0100085F010008C0
:1000A0005F0100085F0100085F0100085F010008B0
:1000B0005F0100085F0100085F0100085F010008A0
:1000C0005F0100085F0100085F0100085F01000890
:1000D0005F010008E53200085F0100086D33000889
:1000E0005F0100085F0100085F0100085F01000870
:1000F0005F0100085F0100085F0100085F01000860
:100100005F0100085F0100085F0100085F0100084F
:10011000053100085D3200085F0100088D2F0008DE
:100120005F0100085F0100085F0100085F0100082F
:10013000DFF80CD000F0A0FC00480047D9410008CF
:10014000981A00200648804706480047FEE7FEE769
:10015000FEE7FEE7FEE7FEE7FEE7FEE7FEE7FEE777
:100160002D2F00083101000840EA01039B0703D04E
:1001700009E008C9121F08C0042AFAD203E011F8E6
:10018000013B00F8013B521EF9D27047D2B201E0A8
:1001900000F8012B491EFBD270470022F6E710B58C
:1001A00013460A4604461946FFF7F0FF204610BDE5
:1001B00030B505462A460B4612F8010B13F8014BE1
:1001C00008B1A042F8D01CB1002802D06D1CF1E7A4
:1001D000284630BD421C10F8011B0029FBD1801AB3
:1001E0007047F0B480EA0102D40F4200B2EB410F35
:1001F00002D20246084611464A0042D0C30DDDB283
:10020000C1F3C752AD1A202D35DAC1F3160141F4FE
:10021000000204B15242C5F1200602FA06F12A4159
:100220001044B3EBD05F23D0C4B1012DA0EBC35079
:1002300009DCF0BC4FF0004202EAC352DBB200F529
:10024000000000F036BB400000F1807000EBC350AE
:10025000A0F1807040EAD170490009E0490841EA04
:10026000C071A0EBC35000F50000400800EBC35084
:10027000F0BC00F015BB6142012202EB4101001B02
:10028000F6E7F0BC704781F00041AAE780F000403B
:10029000A7E780EA010210B502F00043400022D037
:1002A0004A001FD0010E01EB1261C0F35600C2F3E9
:1002B000560240F4000042F40002A0FB02200004B9
:1002C0007F39140400D0401C50EA124001D4400091
:1002D000491EC2B20C0604EBD010401C4008802A14
:1002E00002D003E0002010BD20F00100002900DA58
:1002F0000020184310BD30B480EA010202F000452E
:1003000030F0004221F0004013D090B1C30DD40D65
:10031000C2F31601C0F31600E41A41F4000140F4E0
:1003200000027D34914201D3641C00E04900002C9E
:1003300002DA30BC002070474FF4000000239142E5
:1003400001D3891A034340084FEA4101F7D151B163
:10035000914202D14FF0004105E002D24FF001017D
:1003600001E06FF0010103EBC450284430BC00F001
:1003700097BA2DE9FE4F804681EA0300C00F0C4674
:10038000009021F0004123F00045B8EB0200A941A4
:1003900005D24046214690461C460B46024623F0B5
:1003A0000040104347D0270DC7F30A00C3F30A519A
:1003B0000290401A019040286BDAC3F3130040F416
:1003C000801B0098924620B10023D2EB030A63EB16
:1003D0000B0B01985946C0F14002504600F02FFA2D
:1003E00006460D4650465946019A00F047FA10EB72
:1003F00008006141002487EA115284EAE7731A4336
:1004000040D0009A62B3019A012A4FEA075215DCE4
:10041000001B61EB02014FF0004202EA0752CDE9F6
:100420000042001C41F5801132462B4600F07EFA56
:1004300003B0BDE8F08F40462146F9E7001B61EBB1
:100440000201001C41F5801300185B412018A2F541
:10045000001747EB030140EAD570B6196D4111E072
:100460006D084FEA360645EAC0754FEA0752001B91
:1004700061EB0201001C41F5801149084FEA300090
:100480000019514132462B4603B0BDE8F04F00F051
:100490003EBA0098012240000023D0EB020263EB39
:1004A000E073009821464FEAE074B8EB000061EB7E
:1004B0000401E9E783F000435BE781F0004158E77E
:1004C0002DE9FE4F81EA030404F0004421F00041CD
:1004D00000944FF0000B23F0004350EA01045ED07B
:1004E00052EA03045BD0C3F30A54C1F30A552C4407
:1004F000A4F2F3340194A0FB0254C1F3130141F4BC
:100500008011C3F3130343F4801301FB024400FB87
:10051000034E840A970A44EA815447EA8357A4FBAE
:10052000076802958D0A05FB07854FEA932C04FBAB
:100530000C542705029D4FEA065847EA1637B5EBDB
:1005400008056EEB070C870E920E47EA811742EA08
:100550008312A7FB0201B6EB0B0164EB00042B0D29
:1005600043EA0C335E1844EB1C50DA465146E7FB75
:100570000201C5F313044FEA0B3343EA14534FEA65
:100580000432019C43EA0603A4F10C040294009C8B
:10059000CDE900B400F0CAF903B0BDE8F08F002047
:1005A0000146F9E72DE9F04D81EA030404F0004B20
:1005B00021F0004514464FF0000A23F0004150EAB4
:1005C000050220D054EA01021DD0C5F30A570246A5
:1005D000C5F31303C1F31300C1F30A5640F48015A9
:1005E00043F48013A7EB0608101BD64608F2FD382B
:1005F00073EB050002D308F1010801E092185B419A
:10060000B8F1000F03DA00200146BDE8F08D0020AC
:100610004FF48011064684460EE0171B73EB050766
:1006200005D3121B63EB050306434CEA010C490892
:100630004FEA300092185B4150EA0107EDD152EACF
:10064000030012D082EA040083EA0501084305D0C2
:10065000101BAB4106D20122002306E000224FF01E
:10066000004302E06FF0010253101AEB06004CEB5E
:10067000085110EB0A0041EB0B01BDE8F04D00F012
:1006800046B9C10F80EAE0700844CA0796230021EA
:1006900000F00FB996230022114600F00AB90EB5FA
:1006A00040F2334102910021CDE900110A460B4688
:1006B00000F03CF903B000BD00F0004220F0004023
:1006C000C10DC0F3160040F400007F2901DA0020BC
:1006D0007047962903DCC1F19601C84001E09639C4
:1006E0008840002AF4D04042704770B5C1F30A52E6
:1006F00001F000450024C1F3130140F2FF3341F43F
:1007000080119A4201DA002070BD40F233439A42D0
:10071000A2F2334203DC524200F0A0F800E0904025
:100720002C43F1D0404270BD00F0004230F0004058
:100730000AD0C10D01F56071C0F3160042EA015103
:10074000C20840071143704700200146704701F07E
:10075000004330B421F0004150EA010206D00A0DF6
:10076000A2F56072C1F31301002A02DC30BC002044
:100770007047440F44EAC104C100E01830BC00EBEC
:10078000C25000F08DB80000002801DBC0F100402D
:10079000002901DBC1F1004181427047002801DBE3
:1007A000C0F10040002901DBC1F1004188427047DF
:1007B00030B50B46014600202022012409E021FA31
:1007C00002F59D4205D303FA02F5491B04FA02F52E
:1007D0002844151EA2F10102F1DC30BD2DE9F05FC5
:1007E0000546002092469B468846064681464024A0
:1007F0001BE0284641464746224600F02FF8534664
:100800005A46C01A914110D311461846224600F0AC
:1008100016F82D1A67EB01084F46224601200021E9
:1008200000F00DF817EB00094E41201EA4F1010461
:10083000DFDC484631462A464346BDE8F09F202A81
:1008400004DB203A00FA02F1002070479140C2F127
:10085000200320FA03F3194390407047202A04DB59
:10086000203A21FA02F00021704721FA02F3D04029
:10087000C2F120029140084319467047202A06DB46
:10088000CB17203A41FA02F043EAE07306E041FA5E
:1008900002F3D040C2F1200291400843194670474C
:1008A0000029A8BF7047401C490008BF20F0010084
:1008B000704710B4B0FA80FC00FA0CF050EA010462
:1008C00004BF10BC704749B1CCF1200421FA04F4F4
:1008D00011FA0CF118BF012121430843A3EB0C01CD
:1008E000CB1D4FEA00614FEA102042BF002010BC30
:1008F000704700EBC35010440029A4BF10BC7047E0
:10090000401C490008BF20F0010010BC704710B522
:10091000141E73F1000408DA401C41F10001921822
:100920005B411A4301D120F0010010BD2DE9F04DCB
:1009300092469B4611B1B1FA81F202E0B0FA80F220
:1009400020329046FFF77BFF04460F4640EA0A003C
:1009500041EA0B0153465A46084313D0114653EA65
:10096000010019D0C8F140025046FFF777FF054655
:100970000E46504659464246FFF761FF084305D0F0
:10098000012004E020463946BDE8F08D00200543F3
:1009900046EAE0762C4337430A986305E40AA0EB65
:1009A00008000022FD0A44EA47540A3002D500201C
:1009B0000146E9E7010510196941DDE9084500191B
:1009C0006941BDE8F04DA2E770B521F00043034353
:1009D0000CD0C1F30A550024D5EB040564EB0403E5
:1009E000D617AD1AB34102DB0020014670BD2018B6
:1009F00041EB025170BD0EB5C10F80EAE0700844B2
:100A0000CA07002140F233438DE80E000A460B4628
:100A1000FFF78CFF03B000BDC1F30A52C1F313010D
:100A200040F2FF3341F480119A4202DA002001467D
:100A3000704740F233439A42A2F2334202DC524200
:100A4000FFF70CBFFFF7FBBE30B5041E71F10004C9
:100A500004DB4FF00044404264EB0101141E73F1CB
:100A6000000405DB1C464FF00043524263EB0403D5
:100A7000994208BF904230BD064C074D06E0E06841
:100A800040F0010394E8070098471034AC42F6D3D5
:100A9000FFF752FB045D0008245D00082DE9F04DCE
:100AA00000231A461B1A8A4103DB00200146BDE8D9
:100AB000F08DC1F30A52C1F3130141F480154FF0D8
:100AC000000BD10702D100186D41521E00270446C9
:100AD00040F2FF11384601EB620A3E46804602466C
:100AE00000204FF48011FFF7B9FEC2197141BB1805
:100AF00046EB0100B4EB030C75EB000C04D3E41AD5
:100B000065EB000517460E46241908F101006D41FA
:100B100080463428E3DDF91946EB0600091BA8419D
:100B200003D24FF0FF32134601E0002213461BEBC5
:100B3000070046EB0A51BDE8F04DFFF7E8BE70B57F
:100B40008D1810F8014B14F0030201D110F8012B9D
:100B5000231106D110F8013B03E010F8016B01F8F6
:100B6000016B521EF9D1ABB110F8012B04F00C044B
:100B70008A1A0C2C03D0A2EB84129B1C08E010F8FC
:100B8000014BA2EB0422F8E712F8014B01F8014BEC
:100B90005B1EF9D5A942D4D3002070BD21B1826873
:100BA00042F00102826003E0826822F0010282606A
:100BB0007047000010B504461248844208D1012154
:100BC000401501F0E9FF0021601501F0E5FF17E095
:100BD0000D48844208D10121001501F0DDFF0021FC
:100BE000201501F0D9FF0BE00848844208D101210B
:100BF000C80301F0D1FF00214FF4004001F0CCFF09
:100C000010BD00000024014000280140003C0140CC
:100C1000014600208A6802F004020AB1012000E0C7
:100C2000002070470146C86C80B270470246002021
:100C300013680B400BB1012000E000207047014613
:100C400000208A6802F008020AB1012000E00020BA
:100C50007047000030B502460020002350680F4C5A
:100C600020400D790C6844EA0524204350609068C8
:100C70000B4C2040D1E902542C434D7944EA450401
:100C800020439060D06A20F470000C7C641EE4B2B3
:100C9000234340EA0350D06230BD0000FFFEF0FF66
:100CA000FDF7F1FFF0B504460D4600200021092DA7
:100CB00011DDE068A5F10A0606EB4607072606FAED
:100CC00007F18843A5F10A0606EB460603FA06F18A
:100CD0000843E0600CE0206905EB4507072606FAAB
:100CE00007F1884305EB450603FA06F10843206146
:100CF000072A0FDA606B561E06EB86071F2606FAD8
:100D000007F18843561E06EB860605FA06F10843EE
:100D1000606322E00D2A0FDA206BD61F06EB8607F0
:100D20001F2606FA07F18843D61F06EB860605FA4A
:100D300006F10843206310E0E06AA2F10D0606EB1D
:100D400086071F2606FA07F18843A2F10D0606EB77
:100D5000860605FA06F10843E062F0BD816841F0BD
:100D600008018160704721B1826842F4A00282606C
:100D700003E0826822F4A00282607047816841F03B
:100D8000040181607047000010B54C48807801284C
:100D90007ED14B480078012807D049484078012887
:100DA00003D04748807800285CD045480078012867
:100DB00003D043484078012821D14FF400514148E5
:100DC00000F03DFD4FF480513E4800F038FD3B48B7
:100DD000C078012803D101023B4800F032FD3848B9
:100DE0004078012803D100203549487025E0344877
:100DF0000078012821D10020314908701DE03048D9
:100E00000078D0B92E484078B8B94FF400512D4839
:100E100000F017FD4FF480512A4800F012FD2748DA
:100E2000C078012804D10102274800F008FD04E041
:100E30004FF48071244800F004FD2148807840B1CF
:100E400000201F4988704FF480411E4800F0F7FCD5
:100E500032E01B488078F8B94FF48041194800F01F
:100E6000F0FC29E016480078B0B91548407898B9E8
:100E70001348807880B94FF40051124800F0E1FC2B
:100E80004FF480510F4800F0DCFC4FF4804100E04B
:100E900003E00C4800F0D5FC0EE04FF40051094887
:100EA00000F0CFFC4FF48051064800F0CAFC4FF42C
:100EB0008041044800F0C5FC10BD00002E00002059
:100EC00028000020000C01400008014008B5012165
:100ED000082001F051FE4FF48050ADF800001020C2
:100EE0008DF8030003208DF802006946044800F0E5
:100EF000C9FB4FF48051024800F0A3FC08BD00007C
:100F0000000C014038B504460121092001F034FEEF
:100F10000121104800F042FC1820ADF8000010201C
:100F20008DF8030003208DF8020069460A4800F09E
:100F3000A9FB1821084800F084FC012000F027F8E4
:100F4000072000F024F8204600F021F8B42003F038
:100F5000DDF838BD00023000000C014010B500F093
:100F600061FE472000F024FE00F030FF012000F079
:100F700089FD04464FF6FF7000EA0424002000F0CB
:100F800081FD204484B200F0A9FE204610BD10B5BA
:100F9000044600F047FE462000F00AFE00F016FF6F
:100FA000204600F005FE00F011FF00F097FE10BD96
:100FB0002DE9F05F82464FF0000B5046FFF7E7FF48
:100FC000FFF7CCFF83465846FFF769FB80464FF09A
:100FD0003332084BFFF7E6FA06460022064BFFF7CE
:100FE000C8F90446FFF781FB1FFA80FB5846BDE8AD
:100FF000F09F00003333F33F0000E03F00BFFEE707
:101000002DE9F04F87B082468B4600200590049072
:1010100004AA05A9442001F0A1FEBDF81400FFF7C1
:1010200039FB0190FFF780FB064600222A4BFFF7B1
:1010300047FA0022294BCDE90201FFF7B3FA044633
:101040000022274BFFF736FA8046FFF780FBCAF8ED
:101050000000BDF81000FFF71DFB0390FFF764FBD5
:10106000804600221F4BFFF72BFA064600221B4B3F
:10107000FFF798FA0446FFF76AFBCBF800001A491D
:10108000DAF80000FFF78AFB1AD81849DAF80000EE
:10109000FFF77AFB14D80021DBF80000FFF77EFB96
:1010A0000ED81349DBF80000FFF76EFB08D8DAF81A
:1010B0000000CAF80000DBF80000CBF8000004E0F4
:1010C0000020CAF80000CBF8000000200490059032
:1010D00007B0BDE8F08F000000E06540E0FFEF40A2
:1010E00000804640000059400000A0C10000FA42C4
:1010F0000000C84226480078F4283FD124484078B0
:10110000F3283BD122488078F22837D12048C07894
:10111000F12833D11E48C079AA2826D11C48407C2A
:10112000552822D11A48007A1A4908701848407A7E
:101130001749897A00EB0120164948701448C07A93
:1011400088701348007B1249497B00EB012011494C
:10115000C8700F48807B08710D48C07B0C49097C22
:1011600000EB01200B49487110E00020094908708C
:1011700048708870C8700871487107E00020054900
:10118000087048708870C870087148717047000016
:10119000240B0020260F00207047000010B54FF4EC
:1011A00080710348FEF7F9FF00200249088010BD56
:1011B000981500200009002010B5FFF7EFFF33A0BD
:1011C00002F060FA03E04FF4FA7002F09FFF31A1E1
:1011D00031A000F0E3F80028F5D131A002F052FA76
:1011E00003E04FF4FA7002F091FF2CA12FA000F061
:1011F000D5F80028F5D130A002F044FA03E04FF40E
:10120000FA7002F083FF23A12EA000F0C7F8002897
:10121000F5D130A002F036FA03E04FF4FA7002F094
:1012200075FF1CA12FA000F0B9F80028F5D131A05E
:1012300002F028FA03E04FF4FA7002F067FF30A1E1
:1012400031A000F0ABF80028F5D139A002F01AFA6D
:1012500003E04FF4FA7002F059FF0EA1394800F094
:101260009DF80028F5D138A002F00CFA03E04FF405
:10127000FA7002F04BFF07A137A000F08FF80028AA
:10128000F5D140A002F0FEF910BD0000302E204143
:10129000540D0A004F4B000041540D0A000000009D
:1012A000312E2041542B5253540D0A0041542B52DD
:1012B00053540D0A00000000322E2043574D4F4476
:1012C000450D0A0041542B43574D4F44453D310DC8
:1012D0000A000000332E2041542B4357444843500A
:1012E0000D0A000041542B4357444843503D312CD4
:1012F000310D0A00342E2043574A41500D0A000098
:10130000474F54204950000041542B43574A415005
:101310003D2254656E64615F373634423630222C8C
:10132000223132333435363738220D0A00000000BE
:10133000352E204D515454555345524346470D0ABE
:1013400000000000C05A0008362E204D515454436E
:101350004F4E4E0D0A00000041542B4D5154544342
:101360004F4E4E3D302C226D717474732E68656340
:101370006C6F7564732E636F6D222C313838332C8B
:10138000310D0A00372E2045535038323636204969
:101390006E6974204F4B0D0A000000002DE9F041EA
:1013A00004460D46C8262046FEF714FF87B23A468B
:1013B00021460D4802F04CF90FE000F09DF848B9C5
:1013C00029460A48FEF7F4FE20B1FFF7E7FE0020A9
:1013D000BDE8F0810A2002F099FE301EA6F101015D
:1013E000CEB2EAD10120F3E7004800409815002072
:1013F0002DE9F04FADF50F7D83460C4691469A4698
:10140000FFF7CCFE9898FFF78FF905460E46504639
:10141000FFF78AF9074688462046FFF785F9CDE9A8
:101420000C015846FFF780F9CDF81090CDE9067809
:10143000CDE90856CDE90A01DDE90C01CDE902014B
:10144000DDE90A01CDE900010E480F4902680EA846
:1014500002F028F903E04FF4FA7002F057FE0BA1F6
:101460000EA8FFF79BFF0028F5D14FF400710EA8DE
:10147000FEF793FE642002F049FE0DF50F7DBDE8F6
:10148000F08F0000040900200C5C00084F4B0000A6
:101490002DE9F04FADF5037D8046894692469B4687
:1014A0008C9F8DAC70CCFFF779FE23460F48CDE9B9
:1014B00000560F49026803A802F0F4F803E04FF465
:1014C000FA7002F023FE0BA103A8FFF767FF0028C4
:1014D000F5D14FF4007103A8FEF75FFE642002F01F
:1014E00015FE0DF5037DBDE8F08F00000409002016
:1014F000805B00084F4B00000A48008808B90120B3
:1015000070470848008808490988884203D10020AC
:1015100004490880F4E70348008803490880012053
:10152000EEE70000000900200209002010B500F0DD
:1015300003F800F06BF810BD08B50121102001F090
:101540001BFB0220ADF8000000208DF803000320F3
:101550008DF802006946024800F094F808BD0000CA
:10156000001001402DE9F05F14210B2000F036F847
:101570000446FFF78FF882465046FFF7D5F88046BD
:101580000022074BFFF70EF806460022054BFEF738
:1015900097FF0446FFF7DBF883465846BDE8F09F07
:1015A0000000B04000C8A94010B50446072301223E
:1015B00021460948FFF776FB01210748FFF7D3FBD7
:1015C00000BF02210448FFF731FB0028F9D0024890
:1015D000FFF728FB10BD0000003C01402DE9F04161
:1015E00007460C460025002608E03846FFF7DCFFDA
:1015F0000544052002F08AFD701CC6B2A642F4DB49
:10160000B5FBF4F080B2BDE8F081000000B585B014
:101610000121C80301F0B0FA002000908DF8040009
:101620008DF805004FF46020029000200390012007
:101630008DF8100069461248FFF70CFB4FF440404C
:1016400001F06EFA052301220B210D48FFF72AFB5A
:1016500001210B48FFF7A2FA0948FFF77FFB00BF03
:101660000748FFF7ECFA0028FAD10548FFF786FB98
:1016700000BF0348FFF7CCFA0028FAD105B000BD3F
:10168000003C01402DE9F0410246002500260020E3
:1016900000230024002791F803C00CF00F0591F8F7
:1016A00003C00CF0100CBCF1000F03D091F802C085
:1016B0004CEA050591F800C0BCF1000F31D0146868
:1016C00000202BE04FF0010C0CFA00F3B1F800C041
:1016D0000CEA03069E4220D183004FF00F0C0CFA57
:1016E00003F7BC4305FA03FC4CEA040491F803C079
:1016F000BCF1280F06D14FF0010C0CFA00FCC2F827
:1017000014C00AE091F803C0BCF1480F05D14FF0B6
:10171000010C0CFA00FCC2F810C0401C0828D1D300
:101720001460B1F800C0BCF1FF0F34DD5468002034
:101730002EE000F1080C4FF0010808FA0CF3B1F8A4
:1017400000C00CEA03069E4221D183004FF00F0C2B
:101750000CFA03F7BC4305FA03FC4CEA040491F8C5
:1017600003C0BCF1280F05D100F1080C08FA0CF8F1
:10177000C2F8148091F803C0BCF1480F07D100F102
:10178000080C4FF0010808FA0CF8C2F81080401C51
:101790000828CED35460BDE8F0810000F0B50A46B9
:1017A000002300240021002500F00046B6F1004F80
:1017B00002D11D4EF16901E01B4E7168C0F3034573
:1017C00083B200F44016B6F5401F08D121F07061D5
:1017D000154E766826F07066134F7E6012E000F4B6
:1017E0008016B6F5801F06D1032606FA05F4A1433C
:1017F00041F0706106E0460D360103FA06F6B1438A
:1018000041F0706122B1460D360103FA06F631430C
:1018100000F00046B6F1004F02D1034EF16101E045
:10182000014E7160F0BD0000000001400246002042
:1018300093680B400BB1012000E00020704741612C
:10184000704701617047000010B50446072301226C
:1018500021460948FFF726FA01210748FFF783FAD6
:1018600000BF02210448FFF7E1F90028F9D002483F
:10187000FFF7D8F910BD0000002401402DE9F04128
:1018800007460C460025002608E03846FFF7DCFF37
:101890000544052002F03AFC701CC6B2A642F4DBF7
:1018A000B5FBF4F080B2BDE8F08100BFFEE70000B8
:1018B00010B501F019FA40210D48FFF7C0FF0220D2
:1018C00002F056FC80210A48FFF7B9FF022002F01F
:1018D0004FFC40210648FFF7B4FF022002F048FC0D
:1018E00040210348FFF7ABFF012002F041FC10BD8F
:1018F000000C014010B500200F4908600F48006837
:1019000020F470200D4908600846006840F440301B
:10191000086000200A49C1F89001022002F028FC6A
:10192000012005490860022002F022FC0020044941
:10193000C1F88C0110BD00008C812142000C0140D7
:1019400000802142002001E0411CC8B20A28FBDBD4
:101950007047000008B50121082001F00DF9402072
:10196000ADF8000010208DF8030003208DF8020070
:1019700069460848FFF786FE40210648FFF761FFE9
:1019800069460448FFF77EFE80210248FFF759FFB1
:1019900008BD0000000C014010B501F0A5F9402180
:1019A0000D48FFF74CFF022002F0E2FB80210A48BD
:1019B000FFF747FF022002F0DBFB40210648FFF75C
:1019C00040FF022002F0D4FB40210348FFF737FF1D
:1019D000012002F0CDFB10BD000C014010B500202D
:1019E0000F4908600F48006820F470200D49086016
:1019F0000846006840F44030086001200A49C1F8F8
:101A00009001022002F0B4FB012005490860022089
:101A100002F0AEFB00200449C1F88C0110BD0000AB
:101A20008C812142000C01400080214270B50024CD
:101A300001F048F9012002F09BFB002518E040214D
:101A40000F48FFF7FCFE022002F092FB40210C48F9
:101A5000FFF7F7FE6006040E80210948FFF7E6FE57
:101A600008B144F00104012002F082FB681CC5B2F9
:101A7000082DE4DB40210248FFF7E1FE204670BD5F
:101A8000000C014070B5054600241748006820F49A
:101A90007020154908600846006840F4002008607E
:101AA000002616E0002011490860022002F060FBC9
:101AB00001200F49C1F88C016006040E0B487C38E8
:101AC000006808B1601CC4B2012002F051FB701C18
:101AD000C6B2082EE6DB15B9FFF780FF01E0FFF77D
:101AE00009FF204670BD0000000C01408C8121429E
:101AF0000080214270B50446002523E004F08000F8
:101B000020B180211148FFF79CFE03E080210F489F
:101B1000FFF795FEFFF716FF20210C48FFF791FE17
:101B2000FFF710FF20210948FFF789FE072D03D199
:101B300080210648FFF785FE6006040EFFF702FFCE
:101B4000681CC5B2082DD9DB70BD0000000801403B
:101B500070B5044601F0C8F840211448FFF76FFE45
:101B6000002520E004F0800020B180210F48FFF71D
:101B700068FE03E080210D48FFF761FE6006040E59
:101B8000022002F0F5FA40210848FFF75AFE022031
:101B900002F0EEFA40210548FFF751FE022002F064
:101BA000E7FA681CC5B2082DDCDB70BD000C0140F3
:101BB00070B504461848006820F470201649086083
:101BC0000846006840F4403008600020134908606F
:101BD00000251EE0E00920B101201049091D086020
:101BE00003E000200D49091D08606006040E022074
:101BF00002F0BEFA012009490860022002F0B8FA9A
:101C000000200749C1F88C01022002F0B1FA681CDB
:101C1000C5B2082DDEDB70BD000C01408C81214275
:101C20000080214210B50F48006820F470200D4953
:101C300008600846006840F44030086001200A4906
:101C400008600A49C1F88C01042002F091FA0020D2
:101C500005490860042002F08BFA00200349C1F80E
:101C60008C0110BD000C0140908121420080214276
:101C700010B580210A48FFF7E4FD20210848FFF74E
:101C8000E0FDFFF75FFE80210548FFF7D8FDFFF775
:101C900059FE20210248FFF7D2FDFFF753FE10BD89
:101CA0000008014010B501F01FF880210A48FFF735
:101CB000C8FD40210848FFF7C4FD042002F058FA8F
:101CC00080210548FFF7BBFD042002F051FA4021B6
:101CD0000148FFF7B4FD10BD000C014010B50F48DE
:101CE000006820F470200D4908600846006840F440
:101CF0004030086000200A4908600A49C1F8900194
:101D0000042002F035FA0120054908600549C1F8B0
:101D10009001042002F02CFA10BD0000000C0140DC
:101D20008C8121420080214210B580210648FFF7B6
:101D300086FD20210448FFF784FDFFF703FE802184
:101D40000148FFF77EFD10BD0008014010B500F00E
:101D5000CBFF40210C48FFF772FD80210A48FFF7B6
:101D60006EFD042002F004FA40210748FFF769FDE8
:101D7000042002F0FDF980210348FFF762FD0420F2
:101D800002F0F6F910BD0000000C014010B58021F2
:101D90000D48FFF756FDFFF7D5FD20210A48FFF754
:101DA00050FDFFF7CFFD80210748FFF73FFD08B149
:101DB000012400E0002420210348FFF740FDFFF745
:101DC000C1FD204610BD00000008014010B50024F0
:101DD0001448006820F47020124908600846006822
:101DE00040F40020086001200F49086002F0C0F9AB
:101DF00001200E49C1F88C0102F0BAF907E0601C1D
:101E0000C4B2FA2C03DDFFF769FF012010BD0648BC
:101E1000803800680028F2D10349091F086000BF1C
:101E2000F4E70000000C0140908121420080214233
:101E300010B5C82400F058FF80211D48FFF701FDB0
:101E4000012002F095F940211948FFF7F8FC012024
:101E500002F08EF900F036FF012002F089F90EE061
:101E6000601EC4B2012002F083F92CB94021104851
:101E7000FFF7E5FC012010BD012002F079F9802177
:101E80000B48FFF7D3FC0028EAD1012002F070F9DB
:101E900040210748FFF7D5FC012002F069F94021F5
:101EA0000348FFF7CCFC012002F062F90020E2E7D2
:101EB000000C01404CF6CC4001490860704700001E
:101EC0000030004010B500F013F810BD70B50546A5
:101ED0000C4645F2555000F01FF8284600F010F867
:101EE000204600F013F800F003F8FFF7E3FF70BDA1
:101EF0004AF6AA20014908607047000000300040FF
:101F00000149486070470000003000400149886086
:101F10007047000000300040014908607047000031
:101F20000030004010B54FF4E13003F025F902F025
:101F3000CBF84FF4A06000F099FA02203F49887076
:101F400000F020F9FEF7C2FF00F0A0FE00F0F2FA68
:101F500000F096FA122202212D2000F05BFB1322E2
:101F60000221412000F056FB142204210F2000F032
:101F700051FB15220421232000F04CFB16220421E2
:101F8000372000F047FB172204214B2000F042FBD2
:101F9000182204215F2000F03DFB00F0DBFE202032
:101FA000FEF7B0FF00F024F947214FF47A7001F0FA
:101FB00001F8FFF7BBFA01F009F94FF47A3003F0AA
:101FC0007BF84FF4FA7002F0A1F84FF4E13003F01F
:101FD00011F8FFF7F1F840F2E2410620FFF776FF33
:101FE00000F04EFA122202212D2000F013FB1322E2
:101FF0000221412000F00EFB162204210F2000F0E8
:1020000009FB17220421232000F004FB18220421DD
:10201000372000F0FFFA192204214B2000F0FAFAD1
:102020001A2204215F2000F0F5FA012002F094F852
:1020300000F026FAFFF746FF10BD0000FE0000206A
:1020400022480068224908602048406848601F48CC
:10205000806888601D48C068C8601C4800690861C5
:102060001A48007D08751948806988611748C06959
:10207000C8611848007881F820001648407881F837
:1020800021001448807881F822001248C07881F835
:1020900023001048007981F824000E48407981F827
:1020A00025000D48007881F826000B48407881F81B
:1020B00027000948807881F828000748C07881F80F
:1020C00029000548007981F82A0070470C09002092
:1020D00048000020280000202E00002010B52549CF
:1020E00008692549FEF75AFB01D2012000E00020D3
:1020F00020498968B1F5967F01D9012100E00021CE
:10210000084338B101201D4908700846C078401CBA
:10211000C87002E00020194908701649C8681849BB
:10212000FEF73CFB07D201201449487008460079AD
:10213000401C087102E00020104948700D48007DE5
:10214000012807D00B48007D022803D00948007DF4
:10215000032807D101200949887008464079401CAE
:10216000487105E00348007D10B9002003498870DC
:1021700010BD00000C09002000007A442800002057
:102180000000C84208B50121082000F0F5FC4FF41A
:102190000050ADF8000010208DF8030003208DF8EA
:1021A000020069461148FFF76DFA4FF48040ADF820
:1021B000000069460D48FFF765FA4FF40040ADF89E
:1021C000000069460948FFF75DFA4FF400510748DF
:1021D000FFF737FB4FF480410448FFF732FB4FF421
:1021E00000410248FFF72DFB08BD0000000C014034
:1021F00000B587B001214FF4047000F0BDFC4FF42E
:10220000004000F08DFC0420ADF8040000208DF8A3
:10221000070003208DF8060001A91848FFF732FADD
:102220001748FEF7C7FC002002908DF80C008DF8CF
:102230000D004FF4602004900020059001208DF8DF
:10224000180002A90E48FEF705FD01210C48FEF713
:10225000A5FC0B48FEF782FD00BF0948FEF7EFFC26
:102260000028FAD10648FEF789FD00BF0448FEF7B2
:10227000CFFC0028FAD107B000BD000000100140DB
:10228000002401402DE9FF5F4348007830B9012167
:10229000424800F0BEFE01203F49087014210C2086
:1022A000FFF7ECFA03900398FEF7F4F906463C4971
:1022B000FDF7EFFF05464FF08B41FEF71CF8044693
:1022C0002046FEF731FA0746364A374BFEF751F8FB
:1022D00005460022354BFEF7F3F8CDE90001FEF785
:1022E00004FA8346FEF7CDF931490290FEF703F870
:1022F000044621462A48FDF7C6FF06462146FDF75B
:10230000FAFF05462B49FDF7C4FF81462A480068BD
:1023100040F6B831884217D20022284B4FF0804057
:10232000274901F07DFF05460E464846FEF7FCF9B9
:102330002A463346CDE90001FEF734F90746FEF799
:1023400006FA2049086009E01B48006840F6B831E9
:10235000884203D90021114800F05BFE194801684A
:102360004846FDF7C8FF8346FEF7DEF905464FF005
:102370008042154B01F054FF07464FF08042134B4B
:10238000FEF79EF8CDE90001FEF7E1F982465046DE
:1023900004B0BDE8F09F0000FC08002000140040DD
:1023A000333353407B14AE47E17A743F0000594009
:1023B0000000C8420000A040F8080020B6DBDEBFE5
:1023C00024AEA03FF40800208D9700C0332F834037
:1023D00000BFFEE7704708B54FF4A06000F046F874
:1023E00035208DF8000001208DF801008DF80200E5
:1023F0008DF80300684600F001F808BD70B50021B3
:1024000000230F22C47804B3154C246804F4E0645C
:10241000C4F5E064210AC1F10403CA40447804FA17
:1024200003F184781440214309010E4C0678A1552C
:10243000047804F01F050124AC4005786D11AD004F
:1024400005F1E025C5F8004109E0047804F01F0516
:102450000124AC40044D0678761145F8264070BD45
:102460000CED00E000E400E080E100E002490143FF
:10247000024A1160704700000000FA050CED00E010
:1024800010B5002000F001F810BD70B5064600241C
:1024900015E004F1B001C8B200F084FA002000F0A9
:1024A00081FA102000F07EFA002504E0304600F0AA
:1024B00080FA681CC5B2802DF8DB601CC4B2082C01
:1024C000E7DB70BD08B50121042000F055FBA0201A
:1024D000ADF8000003208DF8020014208DF80300F1
:1024E00069460348FFF7CEF8FFF71EFC08BD000061
:1024F0000008014070B505460C46FFF7B9FB78208F
:10250000FFF7F8FAFFF742FC00B110E02846FFF7AA
:10251000F1FAFFF73BFC00B109E02046FFF7EAFAC9
:10252000FFF734FC00B102E0FFF7FEFB00BFFFF74E
:10253000FBFB70BD10B5FFF7C5FF012001F00CFEDD
:10254000AE2000F02FFA202000F02CFA102000F02E
:1025500029FAB02000F026FAC82000F023FA002063
:1025600000F020FA102000F01DFA402000F01AFAC6
:10257000812000F017FAFF2000F014FAA12000F0EB
:1025800011FAA62000F00EFAA82000F00BFA3F2066
:1025900000F008FAA42000F005FAD32000F002FAB7
:1025A000002000F0FFF9D52000F0FCF9F02000F049
:1025B000F9F9D92000F0F6F9222000F0F3F9DA2039
:1025C00000F0F0F9122000F0EDF9DB2000F0EAF95C
:1025D000202000F0E7F98D2000F0E4F9142000F04D
:1025E000E1F9AF2000F0DEF910BD70B504460D46EC
:1025F00005F1B001C8B200F0D5F9102141EA14107C
:1026000000F0D0F904F00F0141F0010000F0CAF928
:1026100070BD00002DE9F04180460E4617460024AB
:102620007D0131464046FFF7E0FF00BF06E00D495F
:10263000485D00F0BEF96D1C601CC4B2102CF6DBC6
:10264000701CC1B24046FFF7D0FF002406E00549E8
:10265000485D00F0AEF96D1C601CC4B2102CF6DBB6
:10266000BDE8F081130100202DE9F04707460E4632
:102670009046994600250024A8F12000C5B27F2F7E
:1026800002DD0027B01CC6B2B9F1100F22D13146CD
:102690003846FFF7AAFF002407E004EB0511174AAC
:1026A000505C00F086F9601CC4B2082CF5DB701C8D
:1026B000C1B23846FFF799FF002408E004EB05118A
:1026C00008310E4A505C00F074F9601CC4B2082C4A
:1026D000F4DB11E031463846FFF787FF002409E0BC
:1026E00005EB4501064A02EB4101085D00F061F986
:1026F000601CC4B2062CF3DBBDE8F0874054000830
:10270000185200082DE9FF5F074691461E460E9DB0
:102710004FF0000A002435E0301B401EC1B20A20F1
:1027200001F073FDB9FBF0F00A21B0FBF1F201FBFF
:102730001208BAF1000F14D1701EA04211DDB8F1D9
:10274000000F0CD1AB4605EBDB71491001FB0471A6
:10275000C8B22B4620220199FFF786FF10E04FF008
:10276000010AAB4605EBDB71491001FB0471C8B2ED
:1027700008F13001CAB22B460199FFF775FF00BF7F
:10278000601CC4B2B442C7DBBDE8FF9F2DE9F0472F
:102790000646894617469A464FF000080024002551
:1027A000BAF1010F03D0BAF1020F5ED125E020E0AB
:1027B000785D203800F0FF087E2E04DD002609F148
:1027C000010000F0FF0949463046FFF70EFF0024E4
:1027D00009E008EB4801264A02EB4101085D00F0E0
:1027E000E8F8601CC4B2062CF3DBB01DC6B2681C4E
:1027F000C5B2785D0028DBD137E032E0785D203863
:1028000000F0FF08782E04DD002609F1010000F039
:10281000FF0949463046FFF7E8FE002407E004EBD5
:102820000811144A505C00F0C4F8601CC4B2082CB3
:10283000F5DB09F10100C1B23046FFF7D6FE0024F6
:1028400008E004EB081108310A4A505C00F0B1F8C6
:10285000601CC4B2082CF4DB06F10800C6B2681C88
:10286000C5B2785D0028C9D100BF00BFBDE8F087C0
:1028700018520008405400082DE9FF4F87B0074662
:1028800090461E46DDE914954FF0000A00200690A0
:10289000834605904046FDF70FFF8346002434E051
:1028A000301B401EC1B20A2001F0AFFCBBFBF0F0B0
:1028B0000A21B0FBF1F201FB120A0698A0B9701EC2
:1028C000A04211DDBAF1000F0CD105EBD571491012
:1028D00001FB0471C8B22B46202204950899FFF72A
:1028E000C3FE10E00120069005EBD571491001FBF5
:1028F0000471C8B20AF13001CAB22B460495089996
:10290000FFF7B2FE00BF601CC4B2B442C8DB05EBE7
:10291000D571491001FB0671C8B22B462E220495D1
:102920000899FFF7A1FE49460A2001F06EFC0190CC
:10293000FDF7B0FE03905846FDF7A3FE4146019017
:10294000FDF7A4FC02900399FDF7A3FC0490FDF7AA
:10295000B3FE0590002420E0A9EB0400401EC1B2A4
:102960000A2001F052FC0599B1FBF0F00A21B0FBFE
:10297000F1F201FB120A05EBD5714910A31901FB15
:102980000371491DC8B20AF13001CAB22B46049541
:102990000899FFF769FE601CC4B24C45DCDB0BB044
:1029A000BDE8F08F10B5044621460020FFF7A2FDD8
:1029B00010BD10B5044621464020FFF79BFD10BD19
:1029C0001CB537480079012864D1FFF759FD002272
:1029D00001210F20FFF71EFE022201212320FFF715
:1029E00019FE012204210F20FFF714FE0222042108
:1029F0002320FFF70FFE10200221CDE90010294807
:102A00000B46012102683C20FFF736FF112201210D
:102A10006420FFF7FFFD10200221CDE900102148BE
:102A20000B46042142683C20FFF726FF02231EA22A
:102A300004216920FFF7AAFE012001F08DFBFFF7BA
:102A40001FFD1B2201211E20FFF7E4FD1C22012196
:102A50003220FFF7DFFD1D2201214620FFF7DAFDBE
:102A60001E2201215A20FFF7D5FD102000900D48AD
:102A70000423194682681E20FFF744FE02230BA29E
:102A800004214620FFF782FE012001F065FBFFF7DD
:102A9000F7FC04E00248007908B9FFF7F1FC1CBD1F
:102AA0002E00002048000020250000006C757800F2
:102AB0001FB51948C06918498969174A127D164B14
:102AC0001B69154CCDE90032CDE90210E368A2681C
:102AD00061682068FEF78CFC4FF47A7001F016FBF9
:102AE000FEF75CFB2046C069214689692246127DBB
:102AF00023461B69CDE90032CDE90210E368A268E4
:102B000061682068FEF7C4FC4FF47A7001F0FEFAA9
:102B1000FEF744FB1FBD0000480000207047000086
:102B200001460020034A506820F4404008435060AA
:102B3000704700000010024029B1064AD2690243E2
:102B4000044BDA6104E0034AD2698243014BDA6143
:102B5000704700000010024029B1064A1269024382
:102B6000044B1A6104E0034A12698243014B1A6163
:102B7000704700000010024029B1064A92690243E2
:102B8000044B9A6104E0034A92698243014B9A61C3
:102B9000704700000010024029B1064AD268024383
:102BA000044BDA6004E0034AD2688243014BDA60E6
:102BB000704700000010024030B5002100220024C0
:102BC00000232D4D6D6805F00C0121B1042905D0BD
:102BD000082923D105E0294D056022E0274D056035
:102BE0001FE0254D6D6805F47012234D6D6805F4E6
:102BF0008034022505EB92421CB9214D55430560F6
:102C00000BE01D4D6D6805F400351DB11C4D55439D
:102C1000056002E0194D5543056002E0174D05605F
:102C200000BF00BF144D6D6805F0F0010909154D96
:102C30006B5C0568DD4045600F4D6D6805F4E06133
:102C4000090A104D6B5C4568DD4085600A4D6D6872
:102C500005F46051C90A0B4D6B5C4568DD40C560E9
:102C6000054D6D6805F44041890B074D6B5CC568E7
:102C7000B5FBF3F5056130BD0010024000127A008B
:102C800000093D00140000202400002008B50121A7
:102C90000420FFF771FF4FF48070ADF800001020A2
:102CA0008DF8030003208DF8020069460448FEF702
:102CB000E9FC4FF480710248FEF7C1FD08BD000039
:102CC0000008014008B58020ADF8000048208DF8CC
:102CD000030003208DF8020069460248FEF7D2FC8B
:102CE00008BD0000000C014008B58020ADF80000D0
:102CF00010208DF8030003208DF802006946024879
:102D0000FEF7C0FC08BD0000000C014010B50F49E3
:102D1000081FFEF775F92020FEF74AF904460B4814
:102D2000001F8460FFF7AEFA0849091FC860FEF76C
:102D300019FC0649091F0861054800780875044810
:102D4000407888610248C078C86110BD1009002031
:102D5000260F002010B5FEF7FDFD10BDFEB50446A0
:102D60000D461646FEF79EFF002141EA4401C8B217
:102D7000FEF7EEFEFFF75CF82C20FEF7E9FEFFF70A
:102D800057F80620FEF7E4FEFFF752F8FEF7DEFFE5
:102D9000322001F0BBF9FEF785FF012101EB440170
:102DA000C8B2FEF7D5FEFFF743F828BBFEF73EFE9C
:102DB000ADF80000FEF77CFDFEF738FEADF802002E
:102DC000FEF776FDFEF732FEADF80400FEF770FD6B
:102DD000FEF72CFEADF80600FEF76AFDFEF726FEB4
:102DE000ADF80800FEF764FDFEF720FEADF80A001E
:102DF000FEF7D2FDFEF7AAFFBDF80200BDF80010F5
:102E000040EA01202880BDF80800BDF8061040EA1D
:102E100001203080FEBD704710B500F001F810BDF4
:102E20000CB50020019000903348006840F48030D9
:102E30003149086000BF3048006800F4003000905D
:102E40000198401C0190009818B90198B0F5A06F46
:102E5000F1D12948006800F4003010B10120009041
:102E600001E0002000900098012843D12348006829
:102E700040F01000214908600846006820F0030077
:102E800008600846006840F0020008601A48406880
:102E9000194948600846406848600846406840F460
:102EA000806048600846406820F47C10486008460E
:102EB000406840F4E81048600846006840F08070C0
:102EC000086000BF0C48006800F000700028F9D0CE
:102ED0000948406820F003000749486008464068F8
:102EE00040F00200486000BF0348406800F00C005A
:102EF0000828F9D10CBD000000100240002002405B
:102F0000042808D14FF0E021096941F004014FF095
:102F1000E022116107E04FF0E021096921F004018E
:102F20004FF0E022116170477047000010B5134860
:102F3000006840F0010011490860084640681049E7
:102F400008400E494860084600680E4908400B4991
:102F500008600846006820F4802008600846406841
:102F600020F4FE0048604FF41F008860FFF754FF14
:102F70004FF000600449086010BD000000100240DE
:102F80000000FFF8FFFFF6FE08ED00E010B501219C
:102F9000064800F04AF840B10121044800F036F834
:102FA00003480068401C0249086010BD001400403E
:102FB000F80800207FB505460C4601212020FFF7C8
:102FC000BBFDA8B2ADF80400ADF800400020ADF89C
:102FD0000600ADF8020069460B4800F041F80122F6
:102FE0001146094800F032F837208DF80C00002017
:102FF0008DF80D0002208DF80E0001208DF80F00D5
:1030000003A8FFF7FBF97FBD00140040CA4302820A
:10301000704721B1028842F00102028004E0028878
:103020004FF6FE731A400280704730B5024600200A
:1030300000230024158A05EA0103958905EA0104A5
:1030400013B10CB1012000E0002030BD1AB183891A
:103050000B43838102E083898B43838170470000A7
:10306000002202881D4B98420ED01D4B98420BD077
:10307000B0F1804F08D01B4B984205D01A4B9842B4
:1030800002D01A4B984204D14FF68F731A404B88E6
:103090001A43174B984207D0164B984204D04FF66C
:1030A000FF431A40CB881A4302808B8883850B88A4
:1030B00003850A4B98420BD0094B984208D00E4B1F
:1030C000984205D00D4B984202D00D4B984201D149
:1030D0000B7A03860123838270470000002C014095
:1030E000003401400004004000080040000C004093
:1030F0000010004000140040004001400044014026
:103100000048014010B540F225512C4800F0C5F9A7
:1031100000283BD0294800F07BFAC4B2F42C03D03D
:1031200027480078012831D1012025490870F52C65
:103130000BD02448B0F82E0122490C540846B0F8B0
:103140002E01401CA1F82E0120E0F52C1ED11D48B7
:10315000B0F82E011B490C544FF480611A48FDF75A
:103160001CF81848B0F82E2101461748FCF7FCFF60
:103170001448B0F82E011449A1F8000400201049A9
:1031800008701049A1F82E01FDF7B4FF40F2244168
:103190000A4800F082F978B1084800F039FAC4B260
:1031A0000848B0F82E0138B1064890F82C0118B93B
:1031B0000120044981F82C0110BD0000004C0040A2
:1031C00012010020F4090020240B002000B585B076
:1031D00001213020FFF7D0FC01210805FFF7ACFCEE
:1031E0004FF48050ADF8100018208DF81300032024
:1031F0008DF8120004A91648FEF744FA0420ADF831
:1032000010008DF8130004A91248FEF73BFA4FF4A2
:10321000165000900020ADF80400ADF80600ADF89F
:103220000800ADF80C000C20ADF80A0069460A4809
:1032300000F082F9FFF7CFF8012240F2255106484D
:1032400000F055F90121044800F0BFF805B000BDB9
:1032500000100140001401400050004010B540F241
:1032600025511D4800F019F9002833D01A4800F004
:10327000CFF9C4B22146184800F0CFF9312C04D15F
:103280004FF400411548FEF7DAFA322C04D14FF41E
:1032900000411248FEF7D5FA352C02D10120104921
:1032A0008870362C02D100200D498870392C02D14B
:1032B00001200B490871402C02D1002008490871F7
:1032C000412C02D101200649C870422C02D10020B5
:1032D0000349C87010BD000000500040000C0140C0
:1032E0002E00002010B540F225511D4800F0D5F801
:1032F00010B31B4800F08CF9C4B21A48008800F4DF
:103300000040C8B91748008800F4804060B10A2C1A
:1033100003D000201349088020E01248008840F4C0
:1033200000401049088019E00D2C06D10D48008896
:1033300040F480400B49088010E00A480088C0F340
:103340000D0009490C5407480088401C05490880B5
:1033500008460088C72801DD0020088010BD000055
:1033600000380140100100202C09002010B540F267
:1033700025510E4800F091F8B0B10D480088FF28A3
:1033800002D900200A4908800848001D0088C1B2FF
:10339000074802880088401C054B18800548815466
:1033A0002021024800F008F810BD0000004800404D
:1033B000000900209815002001F40072B2F5007F8A
:1033C00000D100BFCA430280704721B1828942F414
:1033D0000052828104E082894DF6FF731A40828197
:1033E0007047000010B504462048844209D10121ED
:1033F0008803FFF7D1FB00214FF48040FFF7CCFB9F
:1034000032E01B48844209D101214804FFF7A4FBA4
:1034100000214FF40030FFF79FFB25E01548844260
:1034200009D101218804FFF797FB00214FF4802088
:10343000FFF792FB18E01048844209D10121C8042B
:10344000FFF78AFB00214FF40020FFF785FB0BE01C
:103450000A48844208D101210805FFF77DFB0021BD
:103460004FF48010FFF778FB10BD000000380140DA
:103470000044004000480040004C00400050004024
:1034800002460020B1F5007F00D100BF13880B4039
:103490000BB1012000E00020704770B50246002407
:1034A00000230025002040F66A16B14200D100BF7B
:1034B000C1F3421501F01F03012606FA03F3012DA3
:1034C00002D19689334006E0022D02D1168A33409C
:1034D00001E0968A33400C12012606FA04F416889D
:1034E000344013B10CB1012000E0002070BDF0B5F4
:1034F0000346002400260025002040F66A17B94242
:1035000000D100BF1846C1F3421401F01F06012785
:1035100007FA06F5012C01D10C3004E0022C01D190
:10352000103000E014301AB107682F43076002E042
:103530000768AF430760F0BD2DE9F04786B0054648
:103540000E460024A24600BFA1460027B08900B164
:1035500000BF2F462C8A4CF6FF700440F0880443CD
:103560002C82AC894EF6F3100440B08831890843B0
:10357000718908430443AC81AC8A4FF6FF40044094
:10358000B0890443AC8201A8FFF716FB1F488742AD
:1035900002D1DDF810A001E0DDF80CA0A88900F44C
:1035A000004040B10AEBCA0000EB0A103168490044
:1035B000B0FBF1F807E00AEBCA0000EB0A10316833
:1035C0008900B0FBF1F86420B8FBF0F00401200999
:1035D000642101FB1089A88900F4004040B1322029
:1035E00000EBC900B0FBF1F000F00700044308E075
:1035F000322000EB09106421B0FBF1F000F00F0065
:1036000004432C8106B0BDE8F0870000003801407B
:1036100001468888C0F308007047C1F30802828021
:10362000704700000BE000BF0749098801F0400126
:103630000029F9D00178044A121D1180401C01783C
:103640000029F0D1704700000038014000BFFEE7BC
:103650002DE9F04107460C46154600260DE014F80A
:10366000011B3846FFF7D9FF00BF40213846FFF75E
:1036700007FF0028F9D0701C86B2AE42EFDBBDE830
:10368000F08100000FB4054B10B503A9044A02985D
:1036900000F07EF910BC5DF814FB0000BD4100088D
:1036A0000C0100200FB4084B10B504A902AA03981E
:1036B00000F06EF9044602A9002000F000FD20464B
:1036C00010BC5DF814FB0000BF400008490050EA40
:1036D000C12018BF04204A0D18BF40F0010040F27D
:1036E000FF72B2EB515F08BF40F00200012808BF33
:1036F000052070472DE9F0414F1E00EBC70104463D
:10370000D1E9000115461E4637F006020DD02A46C3
:103710003346FCF7D5FE7F1E04EBC703D3E9002335
:10372000FCF727FE37F00602F1D1022F25D0042F37
:1037300013D0062F18BFBDE8F0812A463346FCF7A8
:10374000BFFED4E90A23FCF714FE2A463346FCF7F1
:10375000B7FED4E90823FCF70CFE2A463346FCF7F3
:10376000AFFED4E90623FCF704FE2A463346FCF7F5
:10377000A7FED4E90423FCF7FCFD2A463346FCF7F8
:103780009FFED4E90223FCF7F4FD2A463346FCF7FA
:1037900097FED4E90023BDE8F041FCF7EABD000044
:1037A0000022134610460149FCF7FCBE0000F03F22
:1037B000FCF7DFBD0022134610461146FCF7F2BEAF
:1037C00040F2013200204FF0E041FDF7FDB800006B
:1037D000024A00201107FDF7F7B8000001FDFFFFC6
:1037E00002E008C8121F08C1002AFAD170477047CA
:1037F000002001E001C1121F002AFBD17047000028
:103800000149086070470000080900202DE9FF5FAA
:1038100082B00021DDE90430020DDDF840B0034341
:1038200018D044F61050A2F2FF32424315141198FA
:1038300001281FD0A5EB0B00401C5FEA000A4FF0E7
:1038400000064E4FDFF83891B046504615D5CAF104
:10385000000413E0119801244AA3012801D16FEA62
:103860000B010298119AC0E90031C0E9024206B08A
:10387000BDE8F09FCBF10000DFE704460021404A9D
:10388000491842EB0450CDE9001012E0E00707D0E0
:1038900032463B4640464946FCF712FE8046894682
:1038A00032463B4610461946FCF70AFE06460F46CE
:1038B0006410002CEAD1DDE90401DDE90023BAF14E
:1038C000000F06DAFCF7FCFD42464B46FCF7F8FD1C
:1038D00005E0FCF767FE42464B46FCF763FE0446F4
:1038E0000E460022284BFDF7AFF803D84FF0FF300B
:1038F000014607E00022254B20463146FCF739FD02
:10390000FDF78AF8102409E0002C0ADB0A220023C4
:10391000FCF764FF039B30321A55641E50EA010223
:10392000F2D1641C039AC4F111031444119A012AC0
:1039300003D0012208430DD10AE0084304D000203F
:103940004FF0110B119072E7A3EB0B056D1E0DE00C
:103950005B4504DD4FF0000205F1010504E003DAE8
:103960004FF00002A5F10105002AECD00298119950
:10397000C0E90231C0E9004579E7000000001440C9
:103980000000F03F300000000000F0430000E03F86
:103990002DE9FF4F95B09B468946064600250FE26C
:1039A000252877D100242746F84A0121059400E014
:1039B000044316F8013F203B01FA03F01042F7D10F
:1039C00030782A2811D06FF02F033078A0F1300220
:1039D000092A16D8059A44F0020402EB820203EB8E
:1039E00042021044761C0590EFE759F8042B05922B
:1039F000002A03DA504244F40054059044F00204D3
:103A0000761C30782E2816D116F8010F44F00404E5
:103A10002A280DD06FF02F023078A0F13003092B47
:103A200009D807EB870302EB4303C718761CF3E7BB
:103A300059F8047B761C30786C280FD006DC4C28B3
:103A400017D068280DD06A2814D104E0742810D04B
:103A50007A280FD10DE044F400140AE044F48014F5
:103A600001E044F440147278824202D104F58014DB
:103A7000761C761C307866280BD013DC582877D05B
:103A800009DC002875D04528F6D04628F4D0472810
:103A90001AD19DE118E0632835D0642879D06528D3
:103AA00012D195E1702873D008DC6728F1D069281D
:103AB0006FD06E280DD06F2806D1B5E073282CD0BA
:103AC000752875D0782874D05A46179990476D1C80
:103AD00075E1C4F30250022809D003280DD0D9F8AB
:103AE000001004280DD00D6009F1040967E1D9F830
:103AF0000010EA17C1E90052F6E7D9F800100D806E
:103B0000F2E70D70F0E719F8041B8DF800100020A3
:103B10008DF80100EA46012003E059F804AB4FF0AC
:103B2000FF3061074FF0000102D40DE008F1010100
:103B30008846B9420FDA8045F8DB1AF808100029E8
:103B4000F4D108E008F1010188468142FADB1AF855
:103B500008100029F6D105985B46A0EB080721461E
:103B60003846179A00F094FA284400EB080507E05D
:103B70004DE029E10DE01AF8010B5A4617999047DC
:103B8000B8F10108F7D25B4621463846179A13E18F
:103B900042E00A220092C4F302524FF0000A022AC5
:103BA00008D059F804CB032A4FEAEC710AD00DE093
:103BB00029E02AE009F1070121F00702F2E802C139
:103BC000914609E00FFA8CFC4FEAEC71042A03D10C
:103BD0004FFA8CFC4FEAEC71002907DA0A46002103
:103BE000DCF1000C61EB02012D2202E0220504D57C
:103BF0002B228DF80420012203E0E20701D02022CD
:103C0000F7E7904659E00A2102E010220DE010216A
:103C10004FF0000A00910BE010224FF0000A44F030
:103C200004040827009203E008224FF0000A0092E3
:103C3000C4F30252022A05D059F804CB0021032A0A
:103C400008D009E009F1070121F00702F2E802C1FA
:103C5000914605E01FFA8CFC042A01D10CF0FF0C00
:103C60004FF00008220728D5702806D0009B83F06B
:103C7000100353EA0A0305D00EE040228DF8042019
:103C8000012208E05CEA010206D030228DF804200F
:103C90008DF8050002229046009B83F0080353EA4A
:103CA0000A030AD15CEA010201D1620705D530227C
:103CB0008DF804204FF001087F1E582804D034A04E
:103CC00003900EA802900DE036A0F9E75346604637
:103CD000009AFCF783FD84460398825C0298401E9C
:103CE000029002705CEA0100F0D1029806A9081A5D
:103CF00000F1200A600702D524F4803400E0012797
:103D0000574502DDA7EB0A0000E0002000EB0A01A6
:103D1000009005984144401A0590E00306D45B46A4
:103D20002146179A059800F0B3F90544002706E0EC
:103D300001A85A46C05D179990476D1C7F1C4745E6
:103D4000F6DBE0030CD55B462146179A059800F098
:103D50009FF9054404E030205A46179990476D1C9E
:103D60000099481E00900029F5DC08E002980299AD
:103D70005A460078491C0291179990476D1CBAF178
:103D80000001AAF1010AF1DC65E100000928010047
:103D900030313233343536373839616263646566C1
:103DA0000000000030313233343536373839414283
:103DB000434445460000000000F058F90544761CD5
:103DC000307800287FF4ECAD19B02846BDE8F08FBC
:103DD000620700D4062709F1070222F0070CFCE86D
:103DE0000223E14603F000485FEA080C02D00FF21C
:103DF000702C0DE05FEA045C02D50FF2682C07E03E
:103E00005FEAC47C02D00FF2602C01E0AFF2700CCC
:103E10004FF0FF3823F00043CDF850C065280CD098
:103E200006DC452809D046281DD047283DD13DE075
:103E3000662818D067287ED138E00021112F01DBD9
:103E4000112000E0781CCDE9000106A90EA8FFF7BB
:103E5000DDFCDDE90F010E9A03910021009207F1CC
:103E6000010A04914DE04FF000400097CDE90110A8
:103E700006A90EA8FFF7CAFCDDE90F0203920E9B0C
:103E800011990022DDF80CA00093049211B9791C5D
:103E900000EB010AB7EB0A0004D4C0F1FF3007F1D0
:103EA000010A0490AAEB0700019044E0012F00DA18
:103EB00001270021112F01DD112000E03846CDE956
:103EC000000106A90EA8FFF7A1FCDDE90F010E9A7B
:103ED0000391002104910092BA4621070CD4039962
:103EE000514500DA8A46BAF1010F05DD009AAAF1C0
:103EF0000101515C302908D0B84202DA10F1040FF8
:103F000006DA0121CDE9011015E0AAF10101E9E786
:103F1000002805DC049901440491AAEB000102E0A9
:103F2000411C514500DD8A460499401A401C01900D
:103F30004FF000400290200704D40198504501DB67
:103F4000CDF8048000208DF84F0002980DF14F0746
:103F5000B0F1004F25D02B200E9002984FF00208B0
:103F600000280CDA404202902D200E9007E00A2132
:103F70000298FCF71DFC3031029007F8011DB8F1E2
:103F80000001A8F10108F2DC02980028EFD1791EA7
:103F90000E980870307800F0200040F0450007F8D7
:103FA000020D12A8C01B00F107081498007800B198
:103FB000012000EB0A01019801EBE07105984144F2
:103FC000401A401E0590E00306D45B462146179A2E
:103FD000059800F05DF805441498007818B15A4629
:103FE000179990476D1CE00324D55B462146179A2C
:103FF000059800F04DF805441CE00498002807DB04
:10400000DDE90301884203DD0098405C179901E077
:10401000179930205A469047049805F10105401C35
:1040200004900198401E019004D12E205A46179901
:1040300090476D1CBAF10001AAF1010ADDDC05E030
:1040400017F8010B5A46179990476D1CB8F10001FB
:10405000A8F10108F4DC5B462146179A0598ABE607
:104060002D0000002B000000200000002DE9F04191
:10407000044600251E461746880404D405E0394648
:104080002020B0476D1C641EF9D52846BDE8F0819C
:104090002DE9F041044600251E469046C80301D58F
:1040A000302700E02027880404D505E04146384643
:1040B000B0476D1C641EF9D52846BDE8F0810A683A
:1040C000531C0B601070704710B56FF00400FEF7C2
:1040D00017FF0A4800680A49B0FBF1F00949087067
:1040E0000846007800EB4001C1EBC0104FF6FF71AD
:1040F00001EAC0000449088010BD00000000002053
:1041000000127A0006010020080100200146114A31
:1041100012884A434FF0E0235A6100229A611A46FE
:10412000126942F001021A6100BF4FF0E0221069EB
:1041300000F001021AB100F48032002AF5D04FF0ED
:10414000E022126922F001024FF0E0231A610022FE
:104150009A6170470801002030B50446002504E04C
:104160004FF47A70FFF7D2FF641EA542F8D330BD3A
:104170000146114A12784A434FF0E0235A61002267
:104180009A611A46126942F001021A6100BF4FF0AB
:10419000E022106900F001021AB100F48032002A16
:1041A000F5D04FF0E022126922F001024FF0E02337
:1041B0001A6100229A6170470601002000BF054A7B
:1041C000128802F04002002AF9D0C2B2014B1B1D36
:1041D0001A80704700380140FDF7A4FE14E0FEF796
:1041E00095FDFDF77BFFFCF7CFFDFDF76BFEFDF7BF
:1041F00027FF00F001FDFEF7E3FBFEF759FCFDF79A
:1042000061FE6420FFF782FFE9E710B50246012056
:1042100000E050430B1EA1F10104E1B2F9D110BD41
:104220002DE9F04D1D460C4698B0174621F000418F
:1042300023F00043002814BF4FF0010C4FF0000C96
:104240000CEB440CFE4A0CEB02064FEA620C66458E
:104250002BD33E0018BF012606EB45061644F94A4B
:10426000964222D3F84A53EA070C02D0944205D171
:1042700048B918B000201146BDE8F08D002808BFED
:104280004FF0000C01D04FF0010C0CEB440212F582
:10429000001F0AD8002F14BF4FF0010C4FF0000C84
:1042A0000CEB450212F5001F07D918B03A462B4611
:1042B0002146BDE8F04DFFF77BBA0022DFF88CA362
:1042C000002CB8BF534526DADFF884C36345A8BF86
:1042D000022220DADFF870C39C451CDCDFF874C3CF
:1042E0000CEB235CBCF1140F08DDCCF1340627FA8B
:1042F00006FC0CFA06F6BE420DD108E05FB9CCF11F
:10430000140623FA06FC0CFA06F69E4203D10CF0C2
:104310000102C2F1020251EA000C19D1002D17DA94
:10432000002C18BF022A01D0012A07D00220FFF773
:1043300067FA18B0BDE8F04DFFF732BA0220FFF778
:104340005FFAFFF72DFA18B081F00041BDE8F08D5B
:10435000B7F1000C6CD1534525D104F1804212F520
:10436000801201BF00280020B74918B008BFBDE87F
:10437000F08DB548884207DC002DA1BF6046294674
:1043800018B0BDE8F08D07E0281E05DA80F0004186
:1043900018B06046BDE8F08DAF497944D1E900011D
:1043A00018B0BDE8F08DDFF8A0C2634525D1002D1F
:1043B0001FDA19B1514512D1D8B909E0002840F0EF
:1043C000EC82A24A214618B062F31E01BDE8F08DCE
:1043D0000020214618B060F31E01BDE8F08D08DA18
:1043E00018B02346BDE8F04D024600206146FCF7B8
:1043F000D9B818B02146BDE8F08D514518DAB5F1AD
:10440000804F0DD0A5F1005CBCF1FF5C10D1B4F180
:10441000000C0DDB18B06146BDE8F04D00F0C4BDE6
:10442000234618B00246BDE8F04D1946FCF748B8DF
:10443000060024F0004C3BD1D9B1514533D1002CBA
:1044400006DD002DA1BF0020514618B0BDE8F08D5B
:10445000002C01DD002D1BDB002C13DA002D11DBFD
:10446000012A4FF0000014BF78497C4918B0BDE81C
:10447000F08D022A18BF002C0AD0012A08D1002C86
:1044800006DA0AE0002CB8BF002D11DA012A04D0A8
:10449000002018B00146BDE8F08D18B000204FF0A4
:1044A0000041BDE8F08DA1F14050B0F17F601AD01D
:1044B000012000EBE47050EA020421D0624C521E4D
:1044C0004FF0000B104304BF4FF0000B644C6548E5
:1044D00083427CDD644A654893421FDD884217DBD6
:1044E000002D25DB37E0002C00DA4AB1022A0CBF90
:1044F00001204FF0FF3018B0BDE8F04DFCF77BBA5B
:104500000120FFF77DF918B0BDE8F04DFFF752B973
:104510004D4A8A4202DC002D0ADC1CE0814202DAAC
:10452000002D18DA04E0484B994220DD002D12DD01
:104530000220FFF765F9FFF743F905460E46002212
:10454000534658462146FBF7BBFF18B066F31E01E1
:104550002846BDE8F08D0220FFF752F9FFF738F941
:104560000A46214618B062F31E01BDE8F08D002214
:1045700030466146FBF79EFF80460E466FF0010213
:10458000FCF722FA4FF05532394BFBF796FF4246C3
:104590003346FBF795FF0022364BFBF78EFF824632
:1045A00042463346049110461946FBF789FF5246AE
:1045B000049BFBF785FF8A4600904FF0C0422E4BCC
:1045C00040463146FBF77CFF2C4A2B4B00E027E0AE
:1045D000CDE9060151460098FBF772FF8246019132
:1045E000274A284B40463146FBF76AFF5246019B5B
:1045F000FBF760FF82460B4602460591DDE90601A6
:10460000FBF7B7FEDDE90623002688463046FBF7B8
:1046100051FF5246059BFBF750FF024600F07EB962
:104620000020B1F5801F07DA352230466146FCF7DD
:10463000CBF906466FF0340000EB215024E0000077
:10464000FFFF1F00FFFF0F000000F03F0000F07FA2
:104650000000404301FCFFFF1A1700000000F0FFBC
:104660000000F0BF0000E0410000F043FFFFEF3F1B
:104670005555D53F0000E03F4715F73FFE822B65BB
:1046800044DF5DF80BAE543EA0F2FF300190C1F361
:10469000130040F07F6141F040510291FE49884291
:1046A000D8BF002004DDFD498142C8BF012001DDE3
:1046B0000D9008E000200D900198401C0190029898
:1046C000A0F5801002900299F54878440B910D995D
:1046D00000EBC100D0E900230F9330460A920B99FA
:1046E000FBF7E8FECDE90601DDE90A2130460F9B24
:1046F000FBF73FFE02460B460020EA49FBF752FF5C
:10470000059102460B460090DDE90601FBF7D8FE55
:104710001490E5488A464FF00008784402990068F2
:1047200012904FF0005040EA61010D980F9B01EB91
:10473000804000F5002109910A9A1298FBF7BAFE11
:1047400032460B9BFBF7B9FE42465346FBF7B8FED9
:104750000646029140465146099B129AFBF7B0FE6D
:10476000DDE90623FBF7A9FE3246029BFBF7A2FE1A
:10477000059B009AFBF7A4FE0091149A04905346FF
:1047800010461946FBF79CFE06460246C7480B46F4
:10479000029106217844FEF7ADFFCDE90510029B9A
:1047A000324610461946FBF78BFEDDE90532FBF772
:1047B00087FE05910646534640461946149AFBF774
:1047C000D8FD009B049AFBF77BFE3246059BFBF766
:1047D000D0FDCDE905104246534610461946FBF779
:1047E0006FFE0022B24B02910A90FBF7C2FDDDE999
:1047F0000532FBF7BEFD0E464246AD4B4046FBF789
:1048000059FE029B0A9AFBF755FEDDE90532FBF7DC
:1048100054FE424602910A90334610465146FBF739
:104820004FFECDE906015346149A02990A98FBF708
:1048300047FE8A4602903346424600990498FBF7A9
:104840003FFE5346029AFBF794FD82460B46024612
:104850000591DDE90601FBF78CFDDDE9062300206B
:1048600088460646FBF726FE5246059BFBF725FECB
:10487000824609914FF060428E4B30464146FBF72D
:104880001FFE049006918C4A8A4B50460999FBF70B
:1048900017FE82460291894A894B30464146FBF712
:1048A0000FFE5246029BFBF764FD864B7B440D9A3C
:1048B00003EBC203D3E90023FBF75BFD0E900791E6
:1048C0000198FCF798F80591DDE9061382460E9AE7
:1048D0000498FBF74EFD7C4A7A440D9B02EBC30320
:1048E000D3E9002300930292FBF743FD5246059B58
:1048F000FBF73FFD0026884652463046059BFBF7F6
:10490000D9FD009B029AFBF7D5FD069B049AFBF7A5
:10491000D1FD079B0E9AFBF7D0FD024600200B4607
:10492000029038462946FBF7CBFD824601912B4683
:1049300038461946029AFBF7BDFD32464346FBF75F
:10494000BFFD5246019BFBF714FD07468A463246DF
:10495000434629460298FBF7B3FD05460E463A4604
:104960005346FBF706FD594A8846914221DBA8EBE6
:10497000020353EA000210D12A463346FBF79AFDA0
:10498000CDE90401524A534B38465146FBF7F1FC3E
:10499000DDE90423FCF758F821D20220FEF730FFAE
:1049A000FEF70EFF0A46214618B062F31E01BDE86D
:1049B000F08D494B28F000429A4210D3474A08EB49
:1049C000020353EA00027FF4C6AD2A463346FBF7E2
:1049D00071FD3A465346FCF737F87FF6BCAD00222E
:1049E000019228F000403E493E4A01EB20518242AC
:1049F00023DA481C4FF4801121FA00F040443A4A6F
:104A0000C0F30A517A44394BA1F2FF31CB4020EA7E
:104A10000303C0F3130040F48010C1F11401C84037
:104A200012680190B8F1000FBCBF404201902846C7
:104A30003146FBF73FFD05460E462A4633463846CB
:104A40005146FBF796FC4FF000084246284B404683
:104A50000591FBF735FDCDE90601264A264B404678
:104A60000599FBF72DFD009102902A4633464046FA
:104A70000599FBF71FFD3A465346FBF71EFD1F4AFB
:104A80001F4BFBF71DFD009B029AFBF772FC0746CC
:104A9000884602460B4635E08E9803007AB60B0036
:104AA000621300000000F03F9A130000C8120000DB
:104AB0000000084009C7EE3FFD033ADCF5015B1436
:104AC000E02F3EBEA01100006411000000009040E5
:104AD000FE822B654715973C00CC904000346F3F19
:104AE00001FCFFFF0000E03FB0100000FFFF0F00DF
:104AF000432EE63F396CA80C615C20BEEF39FAFE0C
:104B0000422EE63FDDE90601FBF733FCDDE9062333
:104B100005460E46FBF7CEFC3A464346FBF7CDFC76
:104B20000F462A463346009010461946FBF7C8FC4C
:104B3000824602462E4888460B4605217844FEF7F9
:104B4000D9FD52464346FBF7BBFC2A463346FBF7EA
:104B5000B4FC80468A463B4628463146009AFBF71D
:104B6000AFFC3B46009AFBF704FC06910090002244
:104B70004FF0804340465146FBF79CFC0F460C909B
:104B80004246534628463146FBF79AFC3B460C9A70
:104B9000FBF708FD069B009AFBF78CFC2A46334680
:104BA000FBF788FC0022134BFBF787FC05460198B6
:104BB0000E4601EB00510815002810DC284631464E
:104BC000019AFBF701FFFEF781FD042808BFFEF7FD
:104BD000FFFD28463146019AFBF7F6FE05460B46D7
:104BE00018B02A4658462146BDE8F04DFBF768BC90
:104BF000500F00000000F03F30B599B064216846C6
:104C0000FBF7CBFA84A0FEF73DFD86A0FEF70AFD78
:104C100084A0FEF707FD844890F8232083A168460E
:104C2000FEF740FD6846FEF7FDFC7F4890F8242023
:104C300081A16846FEF736FD6846FEF7F3FC7A4828
:104C400090F8252081A16846FEF72CFD6846FEF706
:104C5000E9FC74A0FEF7E6FC73490868FBF764FD05
:104C6000044622460B467DA16846FEF71BFD6846BA
:104C7000FEF7D8FC6C494868FBF756FD044622460F
:104C80000B467AA16846FEF70DFD6846FEF7CAFCA2
:104C900065487AA182686846FEF704FD6846FEF71B
:104CA000C1FC6149C868FBF73FFD044622460B463C
:104CB00077A16846FEF7F6FC6846FEF7B3FC5A4952
:104CC0000869FBF731FD044622460B4677A168468A
:104CD000FEF7E8FC6846FEF7A5FC5348027D7BA181
:104CE0006846FEF7DFFC6846FEF79CFC4E487AA15A
:104CF00082696846FEF7D6FC6846FEF793FC4A4890
:104D00007AA1C2696846FEF7CDFC6846FEF78AFCC8
:104D100044A0FEF787FC43A0FEF784FC424890F8CD
:104D2000282077A16846FEF7BDFC6846FEF77AFCAE
:104D30003D4890F8292078A16846FEF7B3FC684604
:104D4000FEF770FC384890F82A2079A16846FEF7F3
:104D5000A9FC6846FEF766FC32A0FEF763FC4FF440
:104D600080517948FCF762FD08B9012000E000207D
:104D70000446224675A16846FEF794FC6846FEF795
:104D800051FC4FF480717648FCF750FD08B90120C2
:104D900000E000200446224672A16846FEF782FC2D
:104DA0006846FEF73FFC4FF400516748FCF73EFDB4
:104DB00008B9012000E00020044622466EA16846A2
:104DC000FEF770FC6846FEF72DFC4FF480415E480C
:104DD000FCF72CFD08B9012000E000200446224623
:104DE00069A16846FEF75EFC6846FEF71BFC4FF4BF
:104DF00000415548FCF71AFD08B9012000E00020E9
:104E00000446224664A16846FEF74CFC6846FEF75D
:104E100009FC19B030BD00000D0A48454C4C4F0D3F
:104E20000A0000000D0A000048000020C3F7BBF094
:104E30003A2025640D0A0000D1CCCEEDBBF2C8BCEF
:104E4000C6F83A2025640D0A00000000CAC7B7F171
:104E5000D3D0C8CB3A2025640D0A0000CEC2B6C814
:104E60003A20252E326620A1E60D0A00CAAAB6C84D
:104E70003A20252E32662025250D0A00B9E2D5D527
:104E8000C7BFB6C83A202564206C75780D0A0000AB
:104E9000D1CCCEEDBBF2C8BCC6F8C5A8B6C83A2086
:104EA000252E32662070706D0D0A0000BBF0D1E631
:104EB000B4ABB8D0C6F7B5E7D1B9D6B53A202539E5
:104EC0002E3266206D560D0A00000000D7B4CCAC1F
:104ED0003A2025640D0A0000D4CBB6AFBEE0C0EB8B
:104EE0003A20256420636D0D0A000000BEB2D6B9D9
:104EF000BEE0C0EB3A20256420636D0D0A0000007F
:104F0000C9F9B9E2B1A8BEAFCAC7B7F1B9A4D7F71A
:104F10003A2025640D0A0000BCCCB5E7C6F7CAC725
:104F2000B7F1B9A4D7F73A2025640D0A00000000B4
:104F30004F4C4544C6C1C4BBCAC7B7F1B9A4D7F7E3
:104F40003A2025640D0A0000000C0140B7E4C3F9C3
:104F5000C6F7B6CBBFDA3A2025640D0A0000000080
:104F600000080140BCCCB5E7C6F7B6CBBFDA3A20A3
:104F700025640D0A00000000BAEC4C4544B6CBBFD6
:104F8000DA3A2025640D0A00C2CC4C4544B6CBBFAA
:104F9000DA3A2025640D0A00C0B64C4544B6CBBFB2
:104FA000DA3A2025640D0A002DE9F04106460F4645
:104FB000FBF774FD041E0D4618BF0120284320F0A6
:104FC0000040C0F17F6000F1E040C00F0ED0301C07
:104FD00018BF0120384320F00040C0F17F6000F18D
:104FE000E040C00F04BF0120FEF70AFC204629461E
:104FF000BDE8F08110B586B0044601210920FDF717
:10500000BBFD01218804FDF797FD4FF48060ADF8EA
:10501000140003208DF8160018208DF8170005A93C
:105020001D48FCF72FFB4FF40060ADF8140004207E
:105030008DF8170005A91848FCF724FB27208DF8E8
:10504000000002208DF801008DF8020001208DF88B
:1050500003006846FDF7D2F901940020ADF808007E
:10506000ADF80A00ADF80C00ADF810000C20ADF85A
:105070000E0001A90948FEF75FFA012240F225510E
:105080000648FEF734FA01210448FEF79EF904A011
:10509000FEF7F8FA06B010BD000C014000480040D1
:1050A0007573617274335F696E69745F737563637E
:1050B0006573730D0A0000001CB504460121102021
:1050C000FDF75AFD0121C804FDF736FD2648FEF71D
:1050D00089F94FF48060ADF8000003208DF80200DC
:1050E00018208DF8030069462048FCF7CBFA4FF4EE
:1050F0000060ADF8000048208DF8030069461B48A9
:10510000FCF7C0FA1A480460002019498880C8805A
:10511000088188810C2048811348FEF70DFA01218F
:105120001148FEF752F9012240F225510E48FEF7D0
:10513000DEF9012240F224410B48FEF7D8F9342071
:105140008DF8040002208DF8050003208DF806007C
:1051500001208DF8070001A8FDF750F9002005494E
:1051600081F82C011CBD0000004C004000100140E3
:1051700088150020F409002010B586B004460121EE
:1051800044F20400FDF7F8FC4FF40070ADF8140091
:1051900003208DF8160018208DF8170005A91C486B
:1051A000FCF770FA4FF48060ADF8140004208DF81D
:1051B000170005A91648FCF765FA25208DF80000B0
:1051C00003208DF801008DF8020001208DF8030006
:1051D0006846FDF713F901940020ADF80800ADF81A
:1051E0000A00ADF80C00ADF810000C20ADF80E0070
:1051F00001A90848FEF7A0F9012240F2255105480F
:10520000FEF775F901210348FEF7DFF806B010BD7F
:1052100000080140003801400000000000000000CC
:10522000002F000000000700070000147F147F1407
:1052300000242A7F2A12006264081323003649558D
:10524000225000000503000000001C224100000065
:1052500041221C000014083E08140008083E0808FB
:10526000000000A060000008080808080000606056
:105270000000002010080402003E5149453E000095
:10528000427F4000004261514946002141454B3177
:10529000001814127F10002745454539003C4A4943
:1052A00049300001710905030036494949360006B5
:1052B0004949291E0000363600000000563600001D
:1052C0000008142241000014141414140000412298
:1052D000140800020151090600324959513E007C70
:1052E0001211127C007F49494936003E414141225A
:1052F000007F4141221C007F49494941007F090943
:105300000901003E4149497A007F0808087F0000F2
:10531000417F4100002040413F01007F08142241AD
:10532000007F40404040007F020C027F007F040865
:10533000107F003E4141413E007F09090906003EC1
:105340004151215E007F09192946004649494931EA
:105350000001017F0101003F4040403F001F20400D
:10536000201F003F4038403F0063140814630007CB
:105370000870080700615149454300007F41410022
:1053800000552A552A55000041417F0000040201C2
:1053900002040040404040400000010204000020A0
:1053A00054545478007F48444438003844444420DE
:1053B00000384444487F00385454541800087E098B
:1053C00001020018A4A4A47C007F08040478000053
:1053D000447D4000004080847D00007F1028440010
:1053E0000000417F4000007C04180478007C080421
:1053F000047800384444443800FC2424241800185D
:10540000242418FC007C0804040800485454542048
:1054100000043F444020003C4040207C001C2040D1
:10542000201C003C4030403C004428102844001C14
:10543000A0A0A07C004464544C441414141414140C
:10544000000000000000000000000000000000005C
:10545000000000F8000000000000003330000000F1
:1054600000100C06100C06000000000000000000F8
:1054700040C07840C0784000043F04043F0404006A
:10548000007088FC08300000001820FF211E00007A
:10549000F008F000E018000000211C031E211E008F
:1054A00000F00888700000001E2123241927211015
:1054B00010160E00000000000000000000000000B8
:1054C000000000E01804020000000007182040005F
:1054D00000020418E000000000402018070000004F
:1054E000404080F0804040000202010F01020200B3
:1054F000000000F0000000000101011F0101010097
:10550000000000000000000080B0700000000000FB
:105510000000000000000000000101010101010184
:10552000000000000000000000303000000000001B
:1055300000000000806018040060180601000000F0
:1055400000E010080810E000000F102020100F00ED
:10555000001010F8000000000020203F2020000074
:1055600000700808088870000030282422213000CC
:1055700000300888884830000018202020110E00D4
:105580000000C02010F8000000070424243F24007D
:1055900000F80888880808000019212020110E0052
:1055A00000E0108888180000000F112020110E0064
:1055B00000380808C83808000000003F000000005C
:1055C0000070880808887000001C222121221C001D
:1055D00000E010080810E0000000312222110F0046
:1055E000000000C0C00000000000003030000000DB
:1055F000000000800000000000008060000000004B
:105600000000804020100800000102040810200063
:1056100040404040404040000404040404040400AE
:105620000008102040800000002010080402010043
:10563000007048080808F000000000303601000043
:10564000C030C828E810E0000718272423140B00F6
:105650000000C038E0000000203C23020227382070
:1056600008F8888888700000203F202020110E0054
:10567000C03008080808380007182020201008004B
:1056800008F808080810E000203F202020100F0034
:1056900008F88888E8081000203F20202320180000
:1056A00008F88888E8081000203F20000300000068
:1056B000C03008080838000007182020221E020009
:1056C00008F808000008F808203F210101213F20C8
:1056D000000808F8080800000020203F20200000F3
:1056E00000000808F8080800C08080807F000000E3
:1056F00008F888C028180800203F2001263820001C
:1057000008F8080000000000203F20202020300082
:1057100008F8F800F8F80800203F003F003F20009C
:1057200008F830C00008F808203F200007183F00A4
:10573000E01008080810E0000F10202020100F00D3
:1057400008F808080808F000203F210101010000C6
:10575000E01008080810E0000F18242438504F000B
:1057600008F8888888887000203F2000030C3020CB
:1057700000708808080838000038202121221C0009
:10578000180808F8080818000000203F2000000052
:1057900008F808000008F808001F202020201F003B
:1057A0000878880000C83808000007380E0100009B
:1057B000F80800F80008F800033C0700073C030065
:1057C000081868808068180820302C03032C3020CB
:1057D0000838C800C83808000000203F200000003A
:1057E00010080808C8380800203826212020180092
:1057F000000000FE020202000000007F4040400066
:10580000000C30C000000000000000010638C0009D
:1058100000020202FE000000004040407F00000045
:10582000000004020202040000000000000000006A
:105830000000000000000000808080808080808068
:105840000002020400000000000000000000000050
:1058500000008080808000000019242222223F2046
:1058600008F8008080000000003F112020110E0089
:105870000000008080800000000E11202020110018
:10588000000000808088F800000E112020103F20CA
:105890000000808080800000001F2222222213004E
:1058A000008080F0888888180020203F2020000099
:1058B0000000808080808000006B9494949360004E
:1058C00008F8008080800000203F210000203F2059
:1058D00000809898000000000020203F2020000059
:1058E000000000809898000000C08080807F000049
:1058F00008F8000080808000203F24022D30200026
:10590000000808F8000000000020203F20200000D0
:105910008080808080808000203F20003F20003FEA
:105920008080008080800000203F210000203F20F8
:105930000000808080800000001F202020201F00A9
:10594000808000808000000080FFA12020110E00D8
:105950000000008080808000000E112020A0FF80C9
:10596000808080008080800020203F212000010076
:1059700000008080808080000033242424241900CB
:10598000008080E0808000000000001F20200000D8
:105990008080000000808000001F202020103F2019
:1059A000808080000080808000010E3008060100A9
:1059B00080800080008080800F300C030C300F004E
:1059C00000808000808080000020312E0E31200079
:1059D000808080000080808080818E7018060100A9
:1059E00000808080808080000021302C22213000C7
:1059F00000000000807C020200000000003F4040E8
:105A000000000000FF00000000000000FF00000098
:105A10000002027C800000000040403F00000000C7
:105A20000006010102020404000000000000000062
:105A3000000000000000F03F000000000000F83F00
:105A400000000000000000000000004003B8E23F3A
:105A5000000000000000000006D0CF43EBFD4C3EEC
:105A6000033333333333E33FFFAB6FDBB66DDB3FE1
:105A70004D268F515555D53F01411DA96074D13F29
:105A800065DBC9934A86CD3FEF4E454A287ECA3F23
:105A90003E5555555555C53F93BDBE166CC166BFA5
:105AA0002CDE25AF6A56113FF16BD2C541BDBBBE9E
:105AB000D0A4BE726937663E0000000000000000FE
:105AC00041542B4D515454555345524346473D3054
:105AD0002C312C2273746D33325F6573703832361B
